{
	"Do nut.sol": {
		"todo": {
			"abi": [
				{
					"anonymous": false,
					"inputs": [
						{
							"indexed": false,
							"internalType": "uint256",
							"name": "id",
							"type": "uint256"
						},
						{
							"indexed": false,
							"internalType": "string",
							"name": "description",
							"type": "string"
						},
						{
							"indexed": false,
							"internalType": "bool",
							"name": "finished",
							"type": "bool"
						}
					],
					"name": "taskAll",
					"type": "event"
				},
				{
					"inputs": [
						{
							"internalType": "uint256",
							"name": "tid",
							"type": "uint256"
						}
					],
					"name": "completed",
					"outputs": [],
					"stateMutability": "nonpayable",
					"type": "function"
				},
				{
					"inputs": [
						{
							"internalType": "uint256",
							"name": "id",
							"type": "uint256"
						},
						{
							"internalType": "string",
							"name": "description",
							"type": "string"
						}
					],
					"name": "createnote",
					"outputs": [],
					"stateMutability": "nonpayable",
					"type": "function"
				},
				{
					"inputs": [
						{
							"internalType": "uint256",
							"name": "id",
							"type": "uint256"
						}
					],
					"name": "viewtask",
					"outputs": [
						{
							"components": [
								{
									"internalType": "uint256",
									"name": "id",
									"type": "uint256"
								},
								{
									"internalType": "string",
									"name": "description",
									"type": "string"
								},
								{
									"internalType": "bool",
									"name": "finished",
									"type": "bool"
								}
							],
							"internalType": "struct todo.Note",
							"name": "",
							"type": "tuple"
						}
					],
					"stateMutability": "nonpayable",
					"type": "function"
				}
			],
			"devdoc": {
				"kind": "dev",
				"methods": {},
				"version": 1
			},
			"evm": {
				"assembly": "    /* \"Do nut.sol\":35:717  contract todo... */\n  mstore(0x40, 0x80)\n  callvalue\n  dup1\n  iszero\n  tag_1\n  jumpi\n  0x00\n  dup1\n  revert\ntag_1:\n  pop\n  dataSize(sub_0)\n  dup1\n  dataOffset(sub_0)\n  0x00\n  codecopy\n  0x00\n  return\nstop\n\nsub_0: assembly {\n        /* \"Do nut.sol\":35:717  contract todo... */\n      mstore(0x40, 0x80)\n      callvalue\n      dup1\n      iszero\n      tag_1\n      jumpi\n      0x00\n      dup1\n      revert\n    tag_1:\n      pop\n      jumpi(tag_2, lt(calldatasize, 0x04))\n      shr(0xe0, calldataload(0x00))\n      dup1\n      0x2736038e\n      eq\n      tag_3\n      jumpi\n      dup1\n      0x664a9d1d\n      eq\n      tag_4\n      jumpi\n      dup1\n      0xc0cca5ef\n      eq\n      tag_5\n      jumpi\n    tag_2:\n      0x00\n      dup1\n      revert\n        /* \"Do nut.sol\":424:521  function viewtask(uint id) external returns(Note memory){... */\n    tag_3:\n      tag_6\n      0x04\n      dup1\n      calldatasize\n      sub\n      dup2\n      add\n      swap1\n      tag_7\n      swap2\n      swap1\n      tag_8\n      jump\t// in\n    tag_7:\n      tag_9\n      jump\t// in\n    tag_6:\n      mload(0x40)\n      tag_10\n      swap2\n      swap1\n      tag_11\n      jump\t// in\n    tag_10:\n      mload(0x40)\n      dup1\n      swap2\n      sub\n      swap1\n      return\n        /* \"Do nut.sol\":252:419  function createnote(uint id,string memory description) external... */\n    tag_4:\n      tag_12\n      0x04\n      dup1\n      calldatasize\n      sub\n      dup2\n      add\n      swap1\n      tag_13\n      swap2\n      swap1\n      tag_14\n      jump\t// in\n    tag_13:\n      tag_15\n      jump\t// in\n    tag_12:\n      stop\n        /* \"Do nut.sol\":526:715  function completed(uint tid) external{... */\n    tag_5:\n      tag_16\n      0x04\n      dup1\n      calldatasize\n      sub\n      dup2\n      add\n      swap1\n      tag_17\n      swap2\n      swap1\n      tag_8\n      jump\t// in\n    tag_17:\n      tag_18\n      jump\t// in\n    tag_16:\n      stop\n        /* \"Do nut.sol\":424:521  function viewtask(uint id) external returns(Note memory){... */\n    tag_9:\n        /* \"Do nut.sol\":468:479  Note memory */\n      tag_19\n      tag_20\n      jump\t// in\n    tag_19:\n        /* \"Do nut.sol\":497:502  notes */\n      0x00\n        /* \"Do nut.sol\":497:506  notes[id] */\n      dup1\n        /* \"Do nut.sol\":503:505  id */\n      dup4\n        /* \"Do nut.sol\":497:506  notes[id] */\n      dup2\n      mstore\n      0x20\n      add\n      swap1\n      dup2\n      mstore\n      0x20\n      add\n      0x00\n      keccak256\n        /* \"Do nut.sol\":490:506  return notes[id] */\n      mload(0x40)\n      dup1\n      0x60\n      add\n      0x40\n      mstore\n      swap1\n      dup2\n      0x00\n      dup3\n      add\n      sload\n      dup2\n      mstore\n      0x20\n      add\n      0x01\n      dup3\n      add\n      dup1\n      sload\n      tag_22\n      swap1\n      tag_23\n      jump\t// in\n    tag_22:\n      dup1\n      0x1f\n      add\n      0x20\n      dup1\n      swap2\n      div\n      mul\n      0x20\n      add\n      mload(0x40)\n      swap1\n      dup2\n      add\n      0x40\n      mstore\n      dup1\n      swap3\n      swap2\n      swap1\n      dup2\n      dup2\n      mstore\n      0x20\n      add\n      dup3\n      dup1\n      sload\n      tag_24\n      swap1\n      tag_23\n      jump\t// in\n    tag_24:\n      dup1\n      iszero\n      tag_25\n      jumpi\n      dup1\n      0x1f\n      lt\n      tag_26\n      jumpi\n      0x0100\n      dup1\n      dup4\n      sload\n      div\n      mul\n      dup4\n      mstore\n      swap2\n      0x20\n      add\n      swap2\n      jump(tag_25)\n    tag_26:\n      dup3\n      add\n      swap2\n      swap1\n      0x00\n      mstore\n      keccak256(0x00, 0x20)\n      swap1\n    tag_27:\n      dup2\n      sload\n      dup2\n      mstore\n      swap1\n      0x01\n      add\n      swap1\n      0x20\n      add\n      dup1\n      dup4\n      gt\n      tag_27\n      jumpi\n      dup3\n      swap1\n      sub\n      0x1f\n      and\n      dup3\n      add\n      swap2\n    tag_25:\n      pop\n      pop\n      pop\n      pop\n      pop\n      dup2\n      mstore\n      0x20\n      add\n      0x02\n      dup3\n      add\n      0x00\n      swap1\n      sload\n      swap1\n      0x0100\n      exp\n      swap1\n      div\n      0xff\n      and\n      iszero\n      iszero\n      iszero\n      iszero\n      dup2\n      mstore\n      pop\n      pop\n      swap1\n      pop\n        /* \"Do nut.sol\":424:521  function viewtask(uint id) external returns(Note memory){... */\n      swap2\n      swap1\n      pop\n      jump\t// out\n        /* \"Do nut.sol\":252:419  function createnote(uint id,string memory description) external... */\n    tag_15:\n        /* \"Do nut.sol\":342:368  Note(id,description,false) */\n      mload(0x40)\n      dup1\n      0x60\n      add\n      0x40\n      mstore\n      dup1\n        /* \"Do nut.sol\":347:349  id */\n      dup4\n        /* \"Do nut.sol\":342:368  Note(id,description,false) */\n      dup2\n      mstore\n      0x20\n      add\n        /* \"Do nut.sol\":350:361  description */\n      dup3\n        /* \"Do nut.sol\":342:368  Note(id,description,false) */\n      dup2\n      mstore\n      0x20\n      add\n        /* \"Do nut.sol\":362:367  false */\n      0x00\n        /* \"Do nut.sol\":342:368  Note(id,description,false) */\n      iszero\n      iszero\n      dup2\n      mstore\n      pop\n        /* \"Do nut.sol\":330:335  notes */\n      0x00\n        /* \"Do nut.sol\":330:339  notes[id] */\n      dup1\n        /* \"Do nut.sol\":336:338  id */\n      dup5\n        /* \"Do nut.sol\":330:339  notes[id] */\n      dup2\n      mstore\n      0x20\n      add\n      swap1\n      dup2\n      mstore\n      0x20\n      add\n      0x00\n      keccak256\n        /* \"Do nut.sol\":330:368  notes[id] = Note(id,description,false) */\n      0x00\n      dup3\n      add\n      mload\n      dup2\n      0x00\n      add\n      sstore\n      0x20\n      dup3\n      add\n      mload\n      dup2\n      0x01\n      add\n      swap1\n      dup1\n      mload\n      swap1\n      0x20\n      add\n      swap1\n      tag_29\n      swap3\n      swap2\n      swap1\n      tag_30\n      jump\t// in\n    tag_29:\n      pop\n      0x40\n      dup3\n      add\n      mload\n      dup2\n      0x02\n      add\n      exp(0x0100, 0x00)\n      dup2\n      sload\n      dup2\n      0xff\n      mul\n      not\n      and\n      swap1\n      dup4\n      iszero\n      iszero\n      mul\n      or\n      swap1\n      sstore\n      pop\n      swap1\n      pop\n      pop\n        /* \"Do nut.sol\":383:412  taskAll(id,description,false) */\n      0x1aef60839d06fc75fc8758e2118abd2fbe6dd7b243a1f416e918852154bb585f\n        /* \"Do nut.sol\":391:393  id */\n      dup3\n        /* \"Do nut.sol\":394:405  description */\n      dup3\n        /* \"Do nut.sol\":406:411  false */\n      0x00\n        /* \"Do nut.sol\":383:412  taskAll(id,description,false) */\n      mload(0x40)\n      tag_31\n      swap4\n      swap3\n      swap2\n      swap1\n      tag_32\n      jump\t// in\n    tag_31:\n      mload(0x40)\n      dup1\n      swap2\n      sub\n      swap1\n      log1\n        /* \"Do nut.sol\":252:419  function createnote(uint id,string memory description) external... */\n      pop\n      pop\n      jump\t// out\n        /* \"Do nut.sol\":526:715  function completed(uint tid) external{... */\n    tag_18:\n        /* \"Do nut.sol\":583:602  Note storage _event */\n      0x00\n        /* \"Do nut.sol\":605:610  notes */\n      dup1\n        /* \"Do nut.sol\":605:615  notes[tid] */\n      0x00\n        /* \"Do nut.sol\":611:614  tid */\n      dup4\n        /* \"Do nut.sol\":605:615  notes[tid] */\n      dup2\n      mstore\n      0x20\n      add\n      swap1\n      dup2\n      mstore\n      0x20\n      add\n      0x00\n      keccak256\n        /* \"Do nut.sol\":583:615  Note storage _event=  notes[tid] */\n      swap1\n      pop\n        /* \"Do nut.sol\":641:645  true */\n      0x01\n        /* \"Do nut.sol\":625:631  _event */\n      dup2\n        /* \"Do nut.sol\":625:640  _event.finished */\n      0x02\n      add\n      0x00\n        /* \"Do nut.sol\":625:645  _event.finished=true */\n      0x0100\n      exp\n      dup2\n      sload\n      dup2\n      0xff\n      mul\n      not\n      and\n      swap1\n      dup4\n      iszero\n      iszero\n      mul\n      or\n      swap1\n      sstore\n      pop\n        /* \"Do nut.sol\":660:706  taskAll({id:tid,description:\"\",finished:true}) */\n      0x1aef60839d06fc75fc8758e2118abd2fbe6dd7b243a1f416e918852154bb585f\n        /* \"Do nut.sol\":672:675  tid */\n      dup3\n        /* \"Do nut.sol\":700:704  true */\n      0x01\n        /* \"Do nut.sol\":660:706  taskAll({id:tid,description:\"\",finished:true}) */\n      mload(0x40)\n      tag_34\n      swap3\n      swap2\n      swap1\n      tag_35\n      jump\t// in\n    tag_34:\n      mload(0x40)\n      dup1\n      swap2\n      sub\n      swap1\n      log1\n        /* \"Do nut.sol\":563:715  {... */\n      pop\n        /* \"Do nut.sol\":526:715  function completed(uint tid) external{... */\n      pop\n      jump\t// out\n    tag_20:\n      mload(0x40)\n      dup1\n      0x60\n      add\n      0x40\n      mstore\n      dup1\n      0x00\n      dup2\n      mstore\n      0x20\n      add\n      0x60\n      dup2\n      mstore\n      0x20\n      add\n      iszero(iszero(0x00))\n      dup2\n      mstore\n      pop\n      swap1\n      jump\t// out\n    tag_30:\n      dup3\n      dup1\n      sload\n      tag_36\n      swap1\n      tag_23\n      jump\t// in\n    tag_36:\n      swap1\n      0x00\n      mstore\n      keccak256(0x00, 0x20)\n      swap1\n      0x1f\n      add\n      0x20\n      swap1\n      div\n      dup2\n      add\n      swap3\n      dup3\n      tag_38\n      jumpi\n      0x00\n      dup6\n      sstore\n      jump(tag_37)\n    tag_38:\n      dup3\n      0x1f\n      lt\n      tag_39\n      jumpi\n      dup1\n      mload\n      not(0xff)\n      and\n      dup4\n      dup1\n      add\n      or\n      dup6\n      sstore\n      jump(tag_37)\n    tag_39:\n      dup3\n      dup1\n      add\n      0x01\n      add\n      dup6\n      sstore\n      dup3\n      iszero\n      tag_37\n      jumpi\n      swap2\n      dup3\n      add\n    tag_40:\n      dup3\n      dup2\n      gt\n      iszero\n      tag_41\n      jumpi\n      dup3\n      mload\n      dup3\n      sstore\n      swap2\n      0x20\n      add\n      swap2\n      swap1\n      0x01\n      add\n      swap1\n      jump(tag_40)\n    tag_41:\n    tag_37:\n      pop\n      swap1\n      pop\n      tag_42\n      swap2\n      swap1\n      tag_43\n      jump\t// in\n    tag_42:\n      pop\n      swap1\n      jump\t// out\n    tag_43:\n    tag_44:\n      dup1\n      dup3\n      gt\n      iszero\n      tag_45\n      jumpi\n      0x00\n      dup2\n      0x00\n      swap1\n      sstore\n      pop\n      0x01\n      add\n      jump(tag_44)\n    tag_45:\n      pop\n      swap1\n      jump\t// out\n        /* \"#utility.yul\":7:419   */\n    tag_47:\n        /* \"#utility.yul\":85:90   */\n      0x00\n        /* \"#utility.yul\":110:176   */\n      tag_49\n        /* \"#utility.yul\":126:175   */\n      tag_50\n        /* \"#utility.yul\":168:174   */\n      dup5\n        /* \"#utility.yul\":126:175   */\n      tag_51\n      jump\t// in\n    tag_50:\n        /* \"#utility.yul\":110:176   */\n      tag_52\n      jump\t// in\n    tag_49:\n        /* \"#utility.yul\":101:176   */\n      swap1\n      pop\n        /* \"#utility.yul\":199:205   */\n      dup3\n        /* \"#utility.yul\":192:197   */\n      dup2\n        /* \"#utility.yul\":185:206   */\n      mstore\n        /* \"#utility.yul\":237:241   */\n      0x20\n        /* \"#utility.yul\":230:235   */\n      dup2\n        /* \"#utility.yul\":226:242   */\n      add\n        /* \"#utility.yul\":275:278   */\n      dup5\n        /* \"#utility.yul\":266:272   */\n      dup5\n        /* \"#utility.yul\":261:264   */\n      dup5\n        /* \"#utility.yul\":257:273   */\n      add\n        /* \"#utility.yul\":254:279   */\n      gt\n        /* \"#utility.yul\":251:363   */\n      iszero\n      tag_53\n      jumpi\n        /* \"#utility.yul\":282:361   */\n      tag_54\n      tag_55\n      jump\t// in\n    tag_54:\n        /* \"#utility.yul\":251:363   */\n    tag_53:\n        /* \"#utility.yul\":372:413   */\n      tag_56\n        /* \"#utility.yul\":406:412   */\n      dup5\n        /* \"#utility.yul\":401:404   */\n      dup3\n        /* \"#utility.yul\":396:399   */\n      dup6\n        /* \"#utility.yul\":372:413   */\n      tag_57\n      jump\t// in\n    tag_56:\n        /* \"#utility.yul\":91:419   */\n      pop\n        /* \"#utility.yul\":7:419   */\n      swap4\n      swap3\n      pop\n      pop\n      pop\n      jump\t// out\n        /* \"#utility.yul\":439:779   */\n    tag_58:\n        /* \"#utility.yul\":495:500   */\n      0x00\n        /* \"#utility.yul\":544:547   */\n      dup3\n        /* \"#utility.yul\":537:541   */\n      0x1f\n        /* \"#utility.yul\":529:535   */\n      dup4\n        /* \"#utility.yul\":525:542   */\n      add\n        /* \"#utility.yul\":521:548   */\n      slt\n        /* \"#utility.yul\":511:633   */\n      tag_60\n      jumpi\n        /* \"#utility.yul\":552:631   */\n      tag_61\n      tag_62\n      jump\t// in\n    tag_61:\n        /* \"#utility.yul\":511:633   */\n    tag_60:\n        /* \"#utility.yul\":669:675   */\n      dup2\n        /* \"#utility.yul\":656:676   */\n      calldataload\n        /* \"#utility.yul\":694:773   */\n      tag_63\n        /* \"#utility.yul\":769:772   */\n      dup5\n        /* \"#utility.yul\":761:767   */\n      dup3\n        /* \"#utility.yul\":754:758   */\n      0x20\n        /* \"#utility.yul\":746:752   */\n      dup7\n        /* \"#utility.yul\":742:759   */\n      add\n        /* \"#utility.yul\":694:773   */\n      tag_47\n      jump\t// in\n    tag_63:\n        /* \"#utility.yul\":685:773   */\n      swap2\n      pop\n        /* \"#utility.yul\":501:779   */\n      pop\n        /* \"#utility.yul\":439:779   */\n      swap3\n      swap2\n      pop\n      pop\n      jump\t// out\n        /* \"#utility.yul\":785:924   */\n    tag_64:\n        /* \"#utility.yul\":831:836   */\n      0x00\n        /* \"#utility.yul\":869:875   */\n      dup2\n        /* \"#utility.yul\":856:876   */\n      calldataload\n        /* \"#utility.yul\":847:876   */\n      swap1\n      pop\n        /* \"#utility.yul\":885:918   */\n      tag_66\n        /* \"#utility.yul\":912:917   */\n      dup2\n        /* \"#utility.yul\":885:918   */\n      tag_67\n      jump\t// in\n    tag_66:\n        /* \"#utility.yul\":785:924   */\n      swap3\n      swap2\n      pop\n      pop\n      jump\t// out\n        /* \"#utility.yul\":930:1259   */\n    tag_8:\n        /* \"#utility.yul\":989:995   */\n      0x00\n        /* \"#utility.yul\":1038:1040   */\n      0x20\n        /* \"#utility.yul\":1026:1035   */\n      dup3\n        /* \"#utility.yul\":1017:1024   */\n      dup5\n        /* \"#utility.yul\":1013:1036   */\n      sub\n        /* \"#utility.yul\":1009:1041   */\n      slt\n        /* \"#utility.yul\":1006:1125   */\n      iszero\n      tag_69\n      jumpi\n        /* \"#utility.yul\":1044:1123   */\n      tag_70\n      tag_71\n      jump\t// in\n    tag_70:\n        /* \"#utility.yul\":1006:1125   */\n    tag_69:\n        /* \"#utility.yul\":1164:1165   */\n      0x00\n        /* \"#utility.yul\":1189:1242   */\n      tag_72\n        /* \"#utility.yul\":1234:1241   */\n      dup5\n        /* \"#utility.yul\":1225:1231   */\n      dup3\n        /* \"#utility.yul\":1214:1223   */\n      dup6\n        /* \"#utility.yul\":1210:1232   */\n      add\n        /* \"#utility.yul\":1189:1242   */\n      tag_64\n      jump\t// in\n    tag_72:\n        /* \"#utility.yul\":1179:1242   */\n      swap2\n      pop\n        /* \"#utility.yul\":1135:1252   */\n      pop\n        /* \"#utility.yul\":930:1259   */\n      swap3\n      swap2\n      pop\n      pop\n      jump\t// out\n        /* \"#utility.yul\":1265:1919   */\n    tag_14:\n        /* \"#utility.yul\":1343:1349   */\n      0x00\n        /* \"#utility.yul\":1351:1357   */\n      dup1\n        /* \"#utility.yul\":1400:1402   */\n      0x40\n        /* \"#utility.yul\":1388:1397   */\n      dup4\n        /* \"#utility.yul\":1379:1386   */\n      dup6\n        /* \"#utility.yul\":1375:1398   */\n      sub\n        /* \"#utility.yul\":1371:1403   */\n      slt\n        /* \"#utility.yul\":1368:1487   */\n      iszero\n      tag_74\n      jumpi\n        /* \"#utility.yul\":1406:1485   */\n      tag_75\n      tag_71\n      jump\t// in\n    tag_75:\n        /* \"#utility.yul\":1368:1487   */\n    tag_74:\n        /* \"#utility.yul\":1526:1527   */\n      0x00\n        /* \"#utility.yul\":1551:1604   */\n      tag_76\n        /* \"#utility.yul\":1596:1603   */\n      dup6\n        /* \"#utility.yul\":1587:1593   */\n      dup3\n        /* \"#utility.yul\":1576:1585   */\n      dup7\n        /* \"#utility.yul\":1572:1594   */\n      add\n        /* \"#utility.yul\":1551:1604   */\n      tag_64\n      jump\t// in\n    tag_76:\n        /* \"#utility.yul\":1541:1604   */\n      swap3\n      pop\n        /* \"#utility.yul\":1497:1614   */\n      pop\n        /* \"#utility.yul\":1681:1683   */\n      0x20\n        /* \"#utility.yul\":1670:1679   */\n      dup4\n        /* \"#utility.yul\":1666:1684   */\n      add\n        /* \"#utility.yul\":1653:1685   */\n      calldataload\n        /* \"#utility.yul\":1712:1730   */\n      0xffffffffffffffff\n        /* \"#utility.yul\":1704:1710   */\n      dup2\n        /* \"#utility.yul\":1701:1731   */\n      gt\n        /* \"#utility.yul\":1698:1815   */\n      iszero\n      tag_77\n      jumpi\n        /* \"#utility.yul\":1734:1813   */\n      tag_78\n      tag_79\n      jump\t// in\n    tag_78:\n        /* \"#utility.yul\":1698:1815   */\n    tag_77:\n        /* \"#utility.yul\":1839:1902   */\n      tag_80\n        /* \"#utility.yul\":1894:1901   */\n      dup6\n        /* \"#utility.yul\":1885:1891   */\n      dup3\n        /* \"#utility.yul\":1874:1883   */\n      dup7\n        /* \"#utility.yul\":1870:1892   */\n      add\n        /* \"#utility.yul\":1839:1902   */\n      tag_58\n      jump\t// in\n    tag_80:\n        /* \"#utility.yul\":1829:1902   */\n      swap2\n      pop\n        /* \"#utility.yul\":1624:1912   */\n      pop\n        /* \"#utility.yul\":1265:1919   */\n      swap3\n      pop\n      swap3\n      swap1\n      pop\n      jump\t// out\n        /* \"#utility.yul\":1925:2024   */\n    tag_81:\n        /* \"#utility.yul\":1996:2017   */\n      tag_83\n        /* \"#utility.yul\":2011:2016   */\n      dup2\n        /* \"#utility.yul\":1996:2017   */\n      tag_84\n      jump\t// in\n    tag_83:\n        /* \"#utility.yul\":1991:1994   */\n      dup3\n        /* \"#utility.yul\":1984:2018   */\n      mstore\n        /* \"#utility.yul\":1925:2024   */\n      pop\n      pop\n      jump\t// out\n        /* \"#utility.yul\":2030:2139   */\n    tag_85:\n        /* \"#utility.yul\":2111:2132   */\n      tag_87\n        /* \"#utility.yul\":2126:2131   */\n      dup2\n        /* \"#utility.yul\":2111:2132   */\n      tag_84\n      jump\t// in\n    tag_87:\n        /* \"#utility.yul\":2106:2109   */\n      dup3\n        /* \"#utility.yul\":2099:2133   */\n      mstore\n        /* \"#utility.yul\":2030:2139   */\n      pop\n      pop\n      jump\t// out\n        /* \"#utility.yul\":2145:2489   */\n    tag_88:\n        /* \"#utility.yul\":2223:2226   */\n      0x00\n        /* \"#utility.yul\":2251:2290   */\n      tag_90\n        /* \"#utility.yul\":2284:2289   */\n      dup3\n        /* \"#utility.yul\":2251:2290   */\n      tag_91\n      jump\t// in\n    tag_90:\n        /* \"#utility.yul\":2306:2367   */\n      tag_92\n        /* \"#utility.yul\":2360:2366   */\n      dup2\n        /* \"#utility.yul\":2355:2358   */\n      dup6\n        /* \"#utility.yul\":2306:2367   */\n      tag_93\n      jump\t// in\n    tag_92:\n        /* \"#utility.yul\":2299:2367   */\n      swap4\n      pop\n        /* \"#utility.yul\":2376:2428   */\n      tag_94\n        /* \"#utility.yul\":2421:2427   */\n      dup2\n        /* \"#utility.yul\":2416:2419   */\n      dup6\n        /* \"#utility.yul\":2409:2413   */\n      0x20\n        /* \"#utility.yul\":2402:2407   */\n      dup7\n        /* \"#utility.yul\":2398:2414   */\n      add\n        /* \"#utility.yul\":2376:2428   */\n      tag_95\n      jump\t// in\n    tag_94:\n        /* \"#utility.yul\":2453:2482   */\n      tag_96\n        /* \"#utility.yul\":2475:2481   */\n      dup2\n        /* \"#utility.yul\":2453:2482   */\n      tag_97\n      jump\t// in\n    tag_96:\n        /* \"#utility.yul\":2448:2451   */\n      dup5\n        /* \"#utility.yul\":2444:2483   */\n      add\n        /* \"#utility.yul\":2437:2483   */\n      swap2\n      pop\n        /* \"#utility.yul\":2227:2489   */\n      pop\n        /* \"#utility.yul\":2145:2489   */\n      swap3\n      swap2\n      pop\n      pop\n      jump\t// out\n        /* \"#utility.yul\":2495:2859   */\n    tag_98:\n        /* \"#utility.yul\":2583:2586   */\n      0x00\n        /* \"#utility.yul\":2611:2650   */\n      tag_100\n        /* \"#utility.yul\":2644:2649   */\n      dup3\n        /* \"#utility.yul\":2611:2650   */\n      tag_91\n      jump\t// in\n    tag_100:\n        /* \"#utility.yul\":2666:2737   */\n      tag_101\n        /* \"#utility.yul\":2730:2736   */\n      dup2\n        /* \"#utility.yul\":2725:2728   */\n      dup6\n        /* \"#utility.yul\":2666:2737   */\n      tag_102\n      jump\t// in\n    tag_101:\n        /* \"#utility.yul\":2659:2737   */\n      swap4\n      pop\n        /* \"#utility.yul\":2746:2798   */\n      tag_103\n        /* \"#utility.yul\":2791:2797   */\n      dup2\n        /* \"#utility.yul\":2786:2789   */\n      dup6\n        /* \"#utility.yul\":2779:2783   */\n      0x20\n        /* \"#utility.yul\":2772:2777   */\n      dup7\n        /* \"#utility.yul\":2768:2784   */\n      add\n        /* \"#utility.yul\":2746:2798   */\n      tag_95\n      jump\t// in\n    tag_103:\n        /* \"#utility.yul\":2823:2852   */\n      tag_104\n        /* \"#utility.yul\":2845:2851   */\n      dup2\n        /* \"#utility.yul\":2823:2852   */\n      tag_97\n      jump\t// in\n    tag_104:\n        /* \"#utility.yul\":2818:2821   */\n      dup5\n        /* \"#utility.yul\":2814:2853   */\n      add\n        /* \"#utility.yul\":2807:2853   */\n      swap2\n      pop\n        /* \"#utility.yul\":2587:2859   */\n      pop\n        /* \"#utility.yul\":2495:2859   */\n      swap3\n      swap2\n      pop\n      pop\n      jump\t// out\n        /* \"#utility.yul\":2865:3229   */\n    tag_105:\n        /* \"#utility.yul\":3007:3010   */\n      0x00\n        /* \"#utility.yul\":3028:3094   */\n      tag_107\n        /* \"#utility.yul\":3092:3093   */\n      0x00\n        /* \"#utility.yul\":3087:3090   */\n      dup4\n        /* \"#utility.yul\":3028:3094   */\n      tag_102\n      jump\t// in\n    tag_107:\n        /* \"#utility.yul\":3021:3094   */\n      swap2\n      pop\n        /* \"#utility.yul\":3103:3196   */\n      tag_108\n        /* \"#utility.yul\":3192:3195   */\n      dup3\n        /* \"#utility.yul\":3103:3196   */\n      tag_109\n      jump\t// in\n    tag_108:\n        /* \"#utility.yul\":3221:3222   */\n      0x00\n        /* \"#utility.yul\":3216:3219   */\n      dup3\n        /* \"#utility.yul\":3212:3223   */\n      add\n        /* \"#utility.yul\":3205:3223   */\n      swap1\n      pop\n        /* \"#utility.yul\":2865:3229   */\n      swap2\n      swap1\n      pop\n      jump\t// out\n        /* \"#utility.yul\":3279:4050   */\n    tag_110:\n        /* \"#utility.yul\":3386:3389   */\n      0x00\n        /* \"#utility.yul\":3422:3426   */\n      0x60\n        /* \"#utility.yul\":3417:3420   */\n      dup4\n        /* \"#utility.yul\":3413:3427   */\n      add\n        /* \"#utility.yul\":3507:3511   */\n      0x00\n        /* \"#utility.yul\":3500:3505   */\n      dup4\n        /* \"#utility.yul\":3496:3512   */\n      add\n        /* \"#utility.yul\":3490:3513   */\n      mload\n        /* \"#utility.yul\":3526:3589   */\n      tag_112\n        /* \"#utility.yul\":3583:3587   */\n      0x00\n        /* \"#utility.yul\":3578:3581   */\n      dup7\n        /* \"#utility.yul\":3574:3588   */\n      add\n        /* \"#utility.yul\":3560:3572   */\n      dup3\n        /* \"#utility.yul\":3526:3589   */\n      tag_113\n      jump\t// in\n    tag_112:\n        /* \"#utility.yul\":3437:3599   */\n      pop\n        /* \"#utility.yul\":3688:3692   */\n      0x20\n        /* \"#utility.yul\":3681:3686   */\n      dup4\n        /* \"#utility.yul\":3677:3693   */\n      add\n        /* \"#utility.yul\":3671:3694   */\n      mload\n        /* \"#utility.yul\":3741:3744   */\n      dup5\n        /* \"#utility.yul\":3735:3739   */\n      dup3\n        /* \"#utility.yul\":3731:3745   */\n      sub\n        /* \"#utility.yul\":3724:3728   */\n      0x20\n        /* \"#utility.yul\":3719:3722   */\n      dup7\n        /* \"#utility.yul\":3715:3729   */\n      add\n        /* \"#utility.yul\":3708:3746   */\n      mstore\n        /* \"#utility.yul\":3767:3840   */\n      tag_114\n        /* \"#utility.yul\":3835:3839   */\n      dup3\n        /* \"#utility.yul\":3821:3833   */\n      dup3\n        /* \"#utility.yul\":3767:3840   */\n      tag_88\n      jump\t// in\n    tag_114:\n        /* \"#utility.yul\":3759:3840   */\n      swap2\n      pop\n        /* \"#utility.yul\":3609:3851   */\n      pop\n        /* \"#utility.yul\":3937:3941   */\n      0x40\n        /* \"#utility.yul\":3930:3935   */\n      dup4\n        /* \"#utility.yul\":3926:3942   */\n      add\n        /* \"#utility.yul\":3920:3943   */\n      mload\n        /* \"#utility.yul\":3956:4013   */\n      tag_115\n        /* \"#utility.yul\":4007:4011   */\n      0x40\n        /* \"#utility.yul\":4002:4005   */\n      dup7\n        /* \"#utility.yul\":3998:4012   */\n      add\n        /* \"#utility.yul\":3984:3996   */\n      dup3\n        /* \"#utility.yul\":3956:4013   */\n      tag_81\n      jump\t// in\n    tag_115:\n        /* \"#utility.yul\":3861:4023   */\n      pop\n        /* \"#utility.yul\":4040:4044   */\n      dup1\n        /* \"#utility.yul\":4033:4044   */\n      swap2\n      pop\n        /* \"#utility.yul\":3391:4050   */\n      pop\n        /* \"#utility.yul\":3279:4050   */\n      swap3\n      swap2\n      pop\n      pop\n      jump\t// out\n        /* \"#utility.yul\":4056:4164   */\n    tag_113:\n        /* \"#utility.yul\":4133:4157   */\n      tag_117\n        /* \"#utility.yul\":4151:4156   */\n      dup2\n        /* \"#utility.yul\":4133:4157   */\n      tag_118\n      jump\t// in\n    tag_117:\n        /* \"#utility.yul\":4128:4131   */\n      dup3\n        /* \"#utility.yul\":4121:4158   */\n      mstore\n        /* \"#utility.yul\":4056:4164   */\n      pop\n      pop\n      jump\t// out\n        /* \"#utility.yul\":4170:4288   */\n    tag_119:\n        /* \"#utility.yul\":4257:4281   */\n      tag_121\n        /* \"#utility.yul\":4275:4280   */\n      dup2\n        /* \"#utility.yul\":4257:4281   */\n      tag_118\n      jump\t// in\n    tag_121:\n        /* \"#utility.yul\":4252:4255   */\n      dup3\n        /* \"#utility.yul\":4245:4282   */\n      mstore\n        /* \"#utility.yul\":4170:4288   */\n      pop\n      pop\n      jump\t// out\n        /* \"#utility.yul\":4294:4643   */\n    tag_11:\n        /* \"#utility.yul\":4425:4429   */\n      0x00\n        /* \"#utility.yul\":4463:4465   */\n      0x20\n        /* \"#utility.yul\":4452:4461   */\n      dup3\n        /* \"#utility.yul\":4448:4466   */\n      add\n        /* \"#utility.yul\":4440:4466   */\n      swap1\n      pop\n        /* \"#utility.yul\":4512:4521   */\n      dup2\n        /* \"#utility.yul\":4506:4510   */\n      dup2\n        /* \"#utility.yul\":4502:4522   */\n      sub\n        /* \"#utility.yul\":4498:4499   */\n      0x00\n        /* \"#utility.yul\":4487:4496   */\n      dup4\n        /* \"#utility.yul\":4483:4500   */\n      add\n        /* \"#utility.yul\":4476:4523   */\n      mstore\n        /* \"#utility.yul\":4540:4636   */\n      tag_123\n        /* \"#utility.yul\":4631:4635   */\n      dup2\n        /* \"#utility.yul\":4622:4628   */\n      dup5\n        /* \"#utility.yul\":4540:4636   */\n      tag_110\n      jump\t// in\n    tag_123:\n        /* \"#utility.yul\":4532:4636   */\n      swap1\n      pop\n        /* \"#utility.yul\":4294:4643   */\n      swap3\n      swap2\n      pop\n      pop\n      jump\t// out\n        /* \"#utility.yul\":4649:5170   */\n    tag_32:\n        /* \"#utility.yul\":4812:4816   */\n      0x00\n        /* \"#utility.yul\":4850:4852   */\n      0x60\n        /* \"#utility.yul\":4839:4848   */\n      dup3\n        /* \"#utility.yul\":4835:4853   */\n      add\n        /* \"#utility.yul\":4827:4853   */\n      swap1\n      pop\n        /* \"#utility.yul\":4863:4934   */\n      tag_125\n        /* \"#utility.yul\":4931:4932   */\n      0x00\n        /* \"#utility.yul\":4920:4929   */\n      dup4\n        /* \"#utility.yul\":4916:4933   */\n      add\n        /* \"#utility.yul\":4907:4913   */\n      dup7\n        /* \"#utility.yul\":4863:4934   */\n      tag_119\n      jump\t// in\n    tag_125:\n        /* \"#utility.yul\":4981:4990   */\n      dup2\n        /* \"#utility.yul\":4975:4979   */\n      dup2\n        /* \"#utility.yul\":4971:4991   */\n      sub\n        /* \"#utility.yul\":4966:4968   */\n      0x20\n        /* \"#utility.yul\":4955:4964   */\n      dup4\n        /* \"#utility.yul\":4951:4969   */\n      add\n        /* \"#utility.yul\":4944:4992   */\n      mstore\n        /* \"#utility.yul\":5009:5087   */\n      tag_126\n        /* \"#utility.yul\":5082:5086   */\n      dup2\n        /* \"#utility.yul\":5073:5079   */\n      dup6\n        /* \"#utility.yul\":5009:5087   */\n      tag_98\n      jump\t// in\n    tag_126:\n        /* \"#utility.yul\":5001:5087   */\n      swap1\n      pop\n        /* \"#utility.yul\":5097:5163   */\n      tag_127\n        /* \"#utility.yul\":5159:5161   */\n      0x40\n        /* \"#utility.yul\":5148:5157   */\n      dup4\n        /* \"#utility.yul\":5144:5162   */\n      add\n        /* \"#utility.yul\":5135:5141   */\n      dup5\n        /* \"#utility.yul\":5097:5163   */\n      tag_85\n      jump\t// in\n    tag_127:\n        /* \"#utility.yul\":4649:5170   */\n      swap5\n      swap4\n      pop\n      pop\n      pop\n      pop\n      jump\t// out\n        /* \"#utility.yul\":5176:5803   */\n    tag_35:\n        /* \"#utility.yul\":5392:5396   */\n      0x00\n        /* \"#utility.yul\":5430:5432   */\n      0x60\n        /* \"#utility.yul\":5419:5428   */\n      dup3\n        /* \"#utility.yul\":5415:5433   */\n      add\n        /* \"#utility.yul\":5407:5433   */\n      swap1\n      pop\n        /* \"#utility.yul\":5443:5514   */\n      tag_129\n        /* \"#utility.yul\":5511:5512   */\n      0x00\n        /* \"#utility.yul\":5500:5509   */\n      dup4\n        /* \"#utility.yul\":5496:5513   */\n      add\n        /* \"#utility.yul\":5487:5493   */\n      dup6\n        /* \"#utility.yul\":5443:5514   */\n      tag_119\n      jump\t// in\n    tag_129:\n        /* \"#utility.yul\":5561:5570   */\n      dup2\n        /* \"#utility.yul\":5555:5559   */\n      dup2\n        /* \"#utility.yul\":5551:5571   */\n      sub\n        /* \"#utility.yul\":5546:5548   */\n      0x20\n        /* \"#utility.yul\":5535:5544   */\n      dup4\n        /* \"#utility.yul\":5531:5549   */\n      add\n        /* \"#utility.yul\":5524:5572   */\n      mstore\n        /* \"#utility.yul\":5589:5720   */\n      tag_130\n        /* \"#utility.yul\":5715:5719   */\n      dup2\n        /* \"#utility.yul\":5589:5720   */\n      tag_105\n      jump\t// in\n    tag_130:\n        /* \"#utility.yul\":5581:5720   */\n      swap1\n      pop\n        /* \"#utility.yul\":5730:5796   */\n      tag_131\n        /* \"#utility.yul\":5792:5794   */\n      0x40\n        /* \"#utility.yul\":5781:5790   */\n      dup4\n        /* \"#utility.yul\":5777:5795   */\n      add\n        /* \"#utility.yul\":5768:5774   */\n      dup5\n        /* \"#utility.yul\":5730:5796   */\n      tag_85\n      jump\t// in\n    tag_131:\n        /* \"#utility.yul\":5176:5803   */\n      swap4\n      swap3\n      pop\n      pop\n      pop\n      jump\t// out\n        /* \"#utility.yul\":5809:5938   */\n    tag_52:\n        /* \"#utility.yul\":5843:5849   */\n      0x00\n        /* \"#utility.yul\":5870:5890   */\n      tag_133\n      tag_134\n      jump\t// in\n    tag_133:\n        /* \"#utility.yul\":5860:5890   */\n      swap1\n      pop\n        /* \"#utility.yul\":5899:5932   */\n      tag_135\n        /* \"#utility.yul\":5927:5931   */\n      dup3\n        /* \"#utility.yul\":5919:5925   */\n      dup3\n        /* \"#utility.yul\":5899:5932   */\n      tag_136\n      jump\t// in\n    tag_135:\n        /* \"#utility.yul\":5809:5938   */\n      swap2\n      swap1\n      pop\n      jump\t// out\n        /* \"#utility.yul\":5944:6019   */\n    tag_134:\n        /* \"#utility.yul\":5977:5983   */\n      0x00\n        /* \"#utility.yul\":6010:6012   */\n      0x40\n        /* \"#utility.yul\":6004:6013   */\n      mload\n        /* \"#utility.yul\":5994:6013   */\n      swap1\n      pop\n        /* \"#utility.yul\":5944:6019   */\n      swap1\n      jump\t// out\n        /* \"#utility.yul\":6025:6333   */\n    tag_51:\n        /* \"#utility.yul\":6087:6091   */\n      0x00\n        /* \"#utility.yul\":6177:6195   */\n      0xffffffffffffffff\n        /* \"#utility.yul\":6169:6175   */\n      dup3\n        /* \"#utility.yul\":6166:6196   */\n      gt\n        /* \"#utility.yul\":6163:6219   */\n      iszero\n      tag_139\n      jumpi\n        /* \"#utility.yul\":6199:6217   */\n      tag_140\n      tag_141\n      jump\t// in\n    tag_140:\n        /* \"#utility.yul\":6163:6219   */\n    tag_139:\n        /* \"#utility.yul\":6237:6266   */\n      tag_142\n        /* \"#utility.yul\":6259:6265   */\n      dup3\n        /* \"#utility.yul\":6237:6266   */\n      tag_97\n      jump\t// in\n    tag_142:\n        /* \"#utility.yul\":6229:6266   */\n      swap1\n      pop\n        /* \"#utility.yul\":6321:6325   */\n      0x20\n        /* \"#utility.yul\":6315:6319   */\n      dup2\n        /* \"#utility.yul\":6311:6326   */\n      add\n        /* \"#utility.yul\":6303:6326   */\n      swap1\n      pop\n        /* \"#utility.yul\":6025:6333   */\n      swap2\n      swap1\n      pop\n      jump\t// out\n        /* \"#utility.yul\":6339:6438   */\n    tag_91:\n        /* \"#utility.yul\":6391:6397   */\n      0x00\n        /* \"#utility.yul\":6425:6430   */\n      dup2\n        /* \"#utility.yul\":6419:6431   */\n      mload\n        /* \"#utility.yul\":6409:6431   */\n      swap1\n      pop\n        /* \"#utility.yul\":6339:6438   */\n      swap2\n      swap1\n      pop\n      jump\t// out\n        /* \"#utility.yul\":6444:6603   */\n    tag_93:\n        /* \"#utility.yul\":6518:6529   */\n      0x00\n        /* \"#utility.yul\":6552:6558   */\n      dup3\n        /* \"#utility.yul\":6547:6550   */\n      dup3\n        /* \"#utility.yul\":6540:6559   */\n      mstore\n        /* \"#utility.yul\":6592:6596   */\n      0x20\n        /* \"#utility.yul\":6587:6590   */\n      dup3\n        /* \"#utility.yul\":6583:6597   */\n      add\n        /* \"#utility.yul\":6568:6597   */\n      swap1\n      pop\n        /* \"#utility.yul\":6444:6603   */\n      swap3\n      swap2\n      pop\n      pop\n      jump\t// out\n        /* \"#utility.yul\":6609:6778   */\n    tag_102:\n        /* \"#utility.yul\":6693:6704   */\n      0x00\n        /* \"#utility.yul\":6727:6733   */\n      dup3\n        /* \"#utility.yul\":6722:6725   */\n      dup3\n        /* \"#utility.yul\":6715:6734   */\n      mstore\n        /* \"#utility.yul\":6767:6771   */\n      0x20\n        /* \"#utility.yul\":6762:6765   */\n      dup3\n        /* \"#utility.yul\":6758:6772   */\n      add\n        /* \"#utility.yul\":6743:6772   */\n      swap1\n      pop\n        /* \"#utility.yul\":6609:6778   */\n      swap3\n      swap2\n      pop\n      pop\n      jump\t// out\n        /* \"#utility.yul\":6784:6874   */\n    tag_84:\n        /* \"#utility.yul\":6818:6825   */\n      0x00\n        /* \"#utility.yul\":6861:6866   */\n      dup2\n        /* \"#utility.yul\":6854:6867   */\n      iszero\n        /* \"#utility.yul\":6847:6868   */\n      iszero\n        /* \"#utility.yul\":6836:6868   */\n      swap1\n      pop\n        /* \"#utility.yul\":6784:6874   */\n      swap2\n      swap1\n      pop\n      jump\t// out\n        /* \"#utility.yul\":6880:6957   */\n    tag_118:\n        /* \"#utility.yul\":6917:6924   */\n      0x00\n        /* \"#utility.yul\":6946:6951   */\n      dup2\n        /* \"#utility.yul\":6935:6951   */\n      swap1\n      pop\n        /* \"#utility.yul\":6880:6957   */\n      swap2\n      swap1\n      pop\n      jump\t// out\n        /* \"#utility.yul\":6963:7117   */\n    tag_57:\n        /* \"#utility.yul\":7047:7053   */\n      dup3\n        /* \"#utility.yul\":7042:7045   */\n      dup2\n        /* \"#utility.yul\":7037:7040   */\n      dup4\n        /* \"#utility.yul\":7024:7054   */\n      calldatacopy\n        /* \"#utility.yul\":7109:7110   */\n      0x00\n        /* \"#utility.yul\":7100:7106   */\n      dup4\n        /* \"#utility.yul\":7095:7098   */\n      dup4\n        /* \"#utility.yul\":7091:7107   */\n      add\n        /* \"#utility.yul\":7084:7111   */\n      mstore\n        /* \"#utility.yul\":6963:7117   */\n      pop\n      pop\n      pop\n      jump\t// out\n        /* \"#utility.yul\":7123:7430   */\n    tag_95:\n        /* \"#utility.yul\":7191:7192   */\n      0x00\n        /* \"#utility.yul\":7201:7314   */\n    tag_150:\n        /* \"#utility.yul\":7215:7221   */\n      dup4\n        /* \"#utility.yul\":7212:7213   */\n      dup2\n        /* \"#utility.yul\":7209:7222   */\n      lt\n        /* \"#utility.yul\":7201:7314   */\n      iszero\n      tag_152\n      jumpi\n        /* \"#utility.yul\":7300:7301   */\n      dup1\n        /* \"#utility.yul\":7295:7298   */\n      dup3\n        /* \"#utility.yul\":7291:7302   */\n      add\n        /* \"#utility.yul\":7285:7303   */\n      mload\n        /* \"#utility.yul\":7281:7282   */\n      dup2\n        /* \"#utility.yul\":7276:7279   */\n      dup5\n        /* \"#utility.yul\":7272:7283   */\n      add\n        /* \"#utility.yul\":7265:7304   */\n      mstore\n        /* \"#utility.yul\":7237:7239   */\n      0x20\n        /* \"#utility.yul\":7234:7235   */\n      dup2\n        /* \"#utility.yul\":7230:7240   */\n      add\n        /* \"#utility.yul\":7225:7240   */\n      swap1\n      pop\n        /* \"#utility.yul\":7201:7314   */\n      jump(tag_150)\n    tag_152:\n        /* \"#utility.yul\":7332:7338   */\n      dup4\n        /* \"#utility.yul\":7329:7330   */\n      dup2\n        /* \"#utility.yul\":7326:7339   */\n      gt\n        /* \"#utility.yul\":7323:7424   */\n      iszero\n      tag_153\n      jumpi\n        /* \"#utility.yul\":7412:7413   */\n      0x00\n        /* \"#utility.yul\":7403:7409   */\n      dup5\n        /* \"#utility.yul\":7398:7401   */\n      dup5\n        /* \"#utility.yul\":7394:7410   */\n      add\n        /* \"#utility.yul\":7387:7414   */\n      mstore\n        /* \"#utility.yul\":7323:7424   */\n    tag_153:\n        /* \"#utility.yul\":7172:7430   */\n      pop\n        /* \"#utility.yul\":7123:7430   */\n      pop\n      pop\n      pop\n      jump\t// out\n        /* \"#utility.yul\":7436:7756   */\n    tag_23:\n        /* \"#utility.yul\":7480:7486   */\n      0x00\n        /* \"#utility.yul\":7517:7518   */\n      0x02\n        /* \"#utility.yul\":7511:7515   */\n      dup3\n        /* \"#utility.yul\":7507:7519   */\n      div\n        /* \"#utility.yul\":7497:7519   */\n      swap1\n      pop\n        /* \"#utility.yul\":7564:7565   */\n      0x01\n        /* \"#utility.yul\":7558:7562   */\n      dup3\n        /* \"#utility.yul\":7554:7566   */\n      and\n        /* \"#utility.yul\":7585:7603   */\n      dup1\n        /* \"#utility.yul\":7575:7656   */\n      tag_155\n      jumpi\n        /* \"#utility.yul\":7641:7645   */\n      0x7f\n        /* \"#utility.yul\":7633:7639   */\n      dup3\n        /* \"#utility.yul\":7629:7646   */\n      and\n        /* \"#utility.yul\":7619:7646   */\n      swap2\n      pop\n        /* \"#utility.yul\":7575:7656   */\n    tag_155:\n        /* \"#utility.yul\":7703:7705   */\n      0x20\n        /* \"#utility.yul\":7695:7701   */\n      dup3\n        /* \"#utility.yul\":7692:7706   */\n      lt\n        /* \"#utility.yul\":7672:7690   */\n      dup2\n        /* \"#utility.yul\":7669:7707   */\n      eq\n        /* \"#utility.yul\":7666:7750   */\n      iszero\n      tag_156\n      jumpi\n        /* \"#utility.yul\":7722:7740   */\n      tag_157\n      tag_158\n      jump\t// in\n    tag_157:\n        /* \"#utility.yul\":7666:7750   */\n    tag_156:\n        /* \"#utility.yul\":7487:7756   */\n      pop\n        /* \"#utility.yul\":7436:7756   */\n      swap2\n      swap1\n      pop\n      jump\t// out\n        /* \"#utility.yul\":7762:8043   */\n    tag_136:\n        /* \"#utility.yul\":7845:7872   */\n      tag_160\n        /* \"#utility.yul\":7867:7871   */\n      dup3\n        /* \"#utility.yul\":7845:7872   */\n      tag_97\n      jump\t// in\n    tag_160:\n        /* \"#utility.yul\":7837:7843   */\n      dup2\n        /* \"#utility.yul\":7833:7873   */\n      add\n        /* \"#utility.yul\":7975:7981   */\n      dup2\n        /* \"#utility.yul\":7963:7973   */\n      dup2\n        /* \"#utility.yul\":7960:7982   */\n      lt\n        /* \"#utility.yul\":7939:7957   */\n      0xffffffffffffffff\n        /* \"#utility.yul\":7927:7937   */\n      dup3\n        /* \"#utility.yul\":7924:7958   */\n      gt\n        /* \"#utility.yul\":7921:7983   */\n      or\n        /* \"#utility.yul\":7918:8006   */\n      iszero\n      tag_161\n      jumpi\n        /* \"#utility.yul\":7986:8004   */\n      tag_162\n      tag_141\n      jump\t// in\n    tag_162:\n        /* \"#utility.yul\":7918:8006   */\n    tag_161:\n        /* \"#utility.yul\":8026:8036   */\n      dup1\n        /* \"#utility.yul\":8022:8024   */\n      0x40\n        /* \"#utility.yul\":8015:8037   */\n      mstore\n        /* \"#utility.yul\":7805:8043   */\n      pop\n        /* \"#utility.yul\":7762:8043   */\n      pop\n      pop\n      jump\t// out\n        /* \"#utility.yul\":8049:8229   */\n    tag_158:\n        /* \"#utility.yul\":8097:8174   */\n      0x4e487b7100000000000000000000000000000000000000000000000000000000\n        /* \"#utility.yul\":8094:8095   */\n      0x00\n        /* \"#utility.yul\":8087:8175   */\n      mstore\n        /* \"#utility.yul\":8194:8198   */\n      0x22\n        /* \"#utility.yul\":8191:8192   */\n      0x04\n        /* \"#utility.yul\":8184:8199   */\n      mstore\n        /* \"#utility.yul\":8218:8222   */\n      0x24\n        /* \"#utility.yul\":8215:8216   */\n      0x00\n        /* \"#utility.yul\":8208:8223   */\n      revert\n        /* \"#utility.yul\":8235:8415   */\n    tag_141:\n        /* \"#utility.yul\":8283:8360   */\n      0x4e487b7100000000000000000000000000000000000000000000000000000000\n        /* \"#utility.yul\":8280:8281   */\n      0x00\n        /* \"#utility.yul\":8273:8361   */\n      mstore\n        /* \"#utility.yul\":8380:8384   */\n      0x41\n        /* \"#utility.yul\":8377:8378   */\n      0x04\n        /* \"#utility.yul\":8370:8385   */\n      mstore\n        /* \"#utility.yul\":8404:8408   */\n      0x24\n        /* \"#utility.yul\":8401:8402   */\n      0x00\n        /* \"#utility.yul\":8394:8409   */\n      revert\n        /* \"#utility.yul\":8421:8538   */\n    tag_62:\n        /* \"#utility.yul\":8530:8531   */\n      0x00\n        /* \"#utility.yul\":8527:8528   */\n      dup1\n        /* \"#utility.yul\":8520:8532   */\n      revert\n        /* \"#utility.yul\":8544:8661   */\n    tag_55:\n        /* \"#utility.yul\":8653:8654   */\n      0x00\n        /* \"#utility.yul\":8650:8651   */\n      dup1\n        /* \"#utility.yul\":8643:8655   */\n      revert\n        /* \"#utility.yul\":8667:8784   */\n    tag_79:\n        /* \"#utility.yul\":8776:8777   */\n      0x00\n        /* \"#utility.yul\":8773:8774   */\n      dup1\n        /* \"#utility.yul\":8766:8778   */\n      revert\n        /* \"#utility.yul\":8790:8907   */\n    tag_71:\n        /* \"#utility.yul\":8899:8900   */\n      0x00\n        /* \"#utility.yul\":8896:8897   */\n      dup1\n        /* \"#utility.yul\":8889:8901   */\n      revert\n        /* \"#utility.yul\":8913:9015   */\n    tag_97:\n        /* \"#utility.yul\":8954:8960   */\n      0x00\n        /* \"#utility.yul\":9005:9007   */\n      0x1f\n        /* \"#utility.yul\":9001:9008   */\n      not\n        /* \"#utility.yul\":8996:8998   */\n      0x1f\n        /* \"#utility.yul\":8989:8994   */\n      dup4\n        /* \"#utility.yul\":8985:8999   */\n      add\n        /* \"#utility.yul\":8981:9009   */\n      and\n        /* \"#utility.yul\":8971:9009   */\n      swap1\n      pop\n        /* \"#utility.yul\":8913:9015   */\n      swap2\n      swap1\n      pop\n      jump\t// out\n        /* \"#utility.yul\":9021:9135   */\n    tag_109:\n      pop\n      jump\t// out\n        /* \"#utility.yul\":9141:9263   */\n    tag_67:\n        /* \"#utility.yul\":9214:9238   */\n      tag_172\n        /* \"#utility.yul\":9232:9237   */\n      dup2\n        /* \"#utility.yul\":9214:9238   */\n      tag_118\n      jump\t// in\n    tag_172:\n        /* \"#utility.yul\":9207:9212   */\n      dup2\n        /* \"#utility.yul\":9204:9239   */\n      eq\n        /* \"#utility.yul\":9194:9257   */\n      tag_173\n      jumpi\n        /* \"#utility.yul\":9253:9254   */\n      0x00\n        /* \"#utility.yul\":9250:9251   */\n      dup1\n        /* \"#utility.yul\":9243:9255   */\n      revert\n        /* \"#utility.yul\":9194:9257   */\n    tag_173:\n        /* \"#utility.yul\":9141:9263   */\n      pop\n      jump\t// out\n\n    auxdata: 0xa26469706673582212202d7b2fd9d9c4864fe3f433de105a5a3703c7a3d2f34f4e1d6c954a0b4fff2fff64736f6c63430008070033\n}\n",
				"bytecode": {
					"linkReferences": {},
					"object": "608060405234801561001057600080fd5b5061085e806100206000396000f3fe608060405234801561001057600080fd5b50600436106100415760003560e01c80632736038e14610046578063664a9d1d14610076578063c0cca5ef14610092575b600080fd5b610060600480360381019061005b9190610407565b6100ae565b60405161006d91906105b1565b60405180910390f35b610090600480360381019061008b9190610434565b610191565b005b6100ac60048036038101906100a79190610407565b61024b565b005b6100b66102bc565b600080838152602001908152602001600020604051806060016040529081600082015481526020016001820180546100ed90610728565b80601f016020809104026020016040519081016040528092919081815260200182805461011990610728565b80156101665780601f1061013b57610100808354040283529160200191610166565b820191906000526020600020905b81548152906001019060200180831161014957829003601f168201915b505050505081526020016002820160009054906101000a900460ff1615151515815250509050919050565b6040518060600160405280838152602001828152602001600015158152506000808481526020019081526020016000206000820151816000015560208201518160010190805190602001906101e79291906102df565b5060408201518160020160006101000a81548160ff0219169083151502179055509050507f1aef60839d06fc75fc8758e2118abd2fbe6dd7b243a1f416e918852154bb585f8282600060405161023f939291906105d3565b60405180910390a15050565b6000806000838152602001908152602001600020905060018160020160006101000a81548160ff0219169083151502179055507f1aef60839d06fc75fc8758e2118abd2fbe6dd7b243a1f416e918852154bb585f8260016040516102b0929190610611565b60405180910390a15050565b604051806060016040528060008152602001606081526020016000151581525090565b8280546102eb90610728565b90600052602060002090601f01602090048101928261030d5760008555610354565b82601f1061032657805160ff1916838001178555610354565b82800160010185558215610354579182015b82811115610353578251825591602001919060010190610338565b5b5090506103619190610365565b5090565b5b8082111561037e576000816000905550600101610366565b5090565b600061039561039084610672565b61064d565b9050828152602081018484840111156103b1576103b06107ee565b5b6103bc8482856106e6565b509392505050565b600082601f8301126103d9576103d86107e9565b5b81356103e9848260208601610382565b91505092915050565b60008135905061040181610811565b92915050565b60006020828403121561041d5761041c6107f8565b5b600061042b848285016103f2565b91505092915050565b6000806040838503121561044b5761044a6107f8565b5b6000610459858286016103f2565b925050602083013567ffffffffffffffff81111561047a576104796107f3565b5b610486858286016103c4565b9150509250929050565b610499816106d0565b82525050565b6104a8816106d0565b82525050565b60006104b9826106a3565b6104c381856106ae565b93506104d38185602086016106f5565b6104dc816107fd565b840191505092915050565b60006104f2826106a3565b6104fc81856106bf565b935061050c8185602086016106f5565b610515816107fd565b840191505092915050565b600061052d6000836106bf565b91506105388261080e565b600082019050919050565b600060608301600083015161055b6000860182610593565b506020830151848203602086015261057382826104ae565b91505060408301516105886040860182610490565b508091505092915050565b61059c816106dc565b82525050565b6105ab816106dc565b82525050565b600060208201905081810360008301526105cb8184610543565b905092915050565b60006060820190506105e860008301866105a2565b81810360208301526105fa81856104e7565b9050610609604083018461049f565b949350505050565b600060608201905061062660008301856105a2565b818103602083015261063781610520565b9050610646604083018461049f565b9392505050565b6000610657610668565b9050610663828261075a565b919050565b6000604051905090565b600067ffffffffffffffff82111561068d5761068c6107ba565b5b610696826107fd565b9050602081019050919050565b600081519050919050565b600082825260208201905092915050565b600082825260208201905092915050565b60008115159050919050565b6000819050919050565b82818337600083830152505050565b60005b838110156107135780820151818401526020810190506106f8565b83811115610722576000848401525b50505050565b6000600282049050600182168061074057607f821691505b602082108114156107545761075361078b565b5b50919050565b610763826107fd565b810181811067ffffffffffffffff82111715610782576107816107ba565b5b80604052505050565b7f4e487b7100000000000000000000000000000000000000000000000000000000600052602260045260246000fd5b7f4e487b7100000000000000000000000000000000000000000000000000000000600052604160045260246000fd5b600080fd5b600080fd5b600080fd5b600080fd5b6000601f19601f8301169050919050565b50565b61081a816106dc565b811461082557600080fd5b5056fea26469706673582212202d7b2fd9d9c4864fe3f433de105a5a3703c7a3d2f34f4e1d6c954a0b4fff2fff64736f6c63430008070033",
					"opcodes": "PUSH1 0x80 PUSH1 0x40 MSTORE CALLVALUE DUP1 ISZERO PUSH2 0x10 JUMPI PUSH1 0x0 DUP1 REVERT JUMPDEST POP PUSH2 0x85E DUP1 PUSH2 0x20 PUSH1 0x0 CODECOPY PUSH1 0x0 RETURN INVALID PUSH1 0x80 PUSH1 0x40 MSTORE CALLVALUE DUP1 ISZERO PUSH2 0x10 JUMPI PUSH1 0x0 DUP1 REVERT JUMPDEST POP PUSH1 0x4 CALLDATASIZE LT PUSH2 0x41 JUMPI PUSH1 0x0 CALLDATALOAD PUSH1 0xE0 SHR DUP1 PUSH4 0x2736038E EQ PUSH2 0x46 JUMPI DUP1 PUSH4 0x664A9D1D EQ PUSH2 0x76 JUMPI DUP1 PUSH4 0xC0CCA5EF EQ PUSH2 0x92 JUMPI JUMPDEST PUSH1 0x0 DUP1 REVERT JUMPDEST PUSH2 0x60 PUSH1 0x4 DUP1 CALLDATASIZE SUB DUP2 ADD SWAP1 PUSH2 0x5B SWAP2 SWAP1 PUSH2 0x407 JUMP JUMPDEST PUSH2 0xAE JUMP JUMPDEST PUSH1 0x40 MLOAD PUSH2 0x6D SWAP2 SWAP1 PUSH2 0x5B1 JUMP JUMPDEST PUSH1 0x40 MLOAD DUP1 SWAP2 SUB SWAP1 RETURN JUMPDEST PUSH2 0x90 PUSH1 0x4 DUP1 CALLDATASIZE SUB DUP2 ADD SWAP1 PUSH2 0x8B SWAP2 SWAP1 PUSH2 0x434 JUMP JUMPDEST PUSH2 0x191 JUMP JUMPDEST STOP JUMPDEST PUSH2 0xAC PUSH1 0x4 DUP1 CALLDATASIZE SUB DUP2 ADD SWAP1 PUSH2 0xA7 SWAP2 SWAP1 PUSH2 0x407 JUMP JUMPDEST PUSH2 0x24B JUMP JUMPDEST STOP JUMPDEST PUSH2 0xB6 PUSH2 0x2BC JUMP JUMPDEST PUSH1 0x0 DUP1 DUP4 DUP2 MSTORE PUSH1 0x20 ADD SWAP1 DUP2 MSTORE PUSH1 0x20 ADD PUSH1 0x0 KECCAK256 PUSH1 0x40 MLOAD DUP1 PUSH1 0x60 ADD PUSH1 0x40 MSTORE SWAP1 DUP2 PUSH1 0x0 DUP3 ADD SLOAD DUP2 MSTORE PUSH1 0x20 ADD PUSH1 0x1 DUP3 ADD DUP1 SLOAD PUSH2 0xED SWAP1 PUSH2 0x728 JUMP JUMPDEST DUP1 PUSH1 0x1F ADD PUSH1 0x20 DUP1 SWAP2 DIV MUL PUSH1 0x20 ADD PUSH1 0x40 MLOAD SWAP1 DUP2 ADD PUSH1 0x40 MSTORE DUP1 SWAP3 SWAP2 SWAP1 DUP2 DUP2 MSTORE PUSH1 0x20 ADD DUP3 DUP1 SLOAD PUSH2 0x119 SWAP1 PUSH2 0x728 JUMP JUMPDEST DUP1 ISZERO PUSH2 0x166 JUMPI DUP1 PUSH1 0x1F LT PUSH2 0x13B JUMPI PUSH2 0x100 DUP1 DUP4 SLOAD DIV MUL DUP4 MSTORE SWAP2 PUSH1 0x20 ADD SWAP2 PUSH2 0x166 JUMP JUMPDEST DUP3 ADD SWAP2 SWAP1 PUSH1 0x0 MSTORE PUSH1 0x20 PUSH1 0x0 KECCAK256 SWAP1 JUMPDEST DUP2 SLOAD DUP2 MSTORE SWAP1 PUSH1 0x1 ADD SWAP1 PUSH1 0x20 ADD DUP1 DUP4 GT PUSH2 0x149 JUMPI DUP3 SWAP1 SUB PUSH1 0x1F AND DUP3 ADD SWAP2 JUMPDEST POP POP POP POP POP DUP2 MSTORE PUSH1 0x20 ADD PUSH1 0x2 DUP3 ADD PUSH1 0x0 SWAP1 SLOAD SWAP1 PUSH2 0x100 EXP SWAP1 DIV PUSH1 0xFF AND ISZERO ISZERO ISZERO ISZERO DUP2 MSTORE POP POP SWAP1 POP SWAP2 SWAP1 POP JUMP JUMPDEST PUSH1 0x40 MLOAD DUP1 PUSH1 0x60 ADD PUSH1 0x40 MSTORE DUP1 DUP4 DUP2 MSTORE PUSH1 0x20 ADD DUP3 DUP2 MSTORE PUSH1 0x20 ADD PUSH1 0x0 ISZERO ISZERO DUP2 MSTORE POP PUSH1 0x0 DUP1 DUP5 DUP2 MSTORE PUSH1 0x20 ADD SWAP1 DUP2 MSTORE PUSH1 0x20 ADD PUSH1 0x0 KECCAK256 PUSH1 0x0 DUP3 ADD MLOAD DUP2 PUSH1 0x0 ADD SSTORE PUSH1 0x20 DUP3 ADD MLOAD DUP2 PUSH1 0x1 ADD SWAP1 DUP1 MLOAD SWAP1 PUSH1 0x20 ADD SWAP1 PUSH2 0x1E7 SWAP3 SWAP2 SWAP1 PUSH2 0x2DF JUMP JUMPDEST POP PUSH1 0x40 DUP3 ADD MLOAD DUP2 PUSH1 0x2 ADD PUSH1 0x0 PUSH2 0x100 EXP DUP2 SLOAD DUP2 PUSH1 0xFF MUL NOT AND SWAP1 DUP4 ISZERO ISZERO MUL OR SWAP1 SSTORE POP SWAP1 POP POP PUSH32 0x1AEF60839D06FC75FC8758E2118ABD2FBE6DD7B243A1F416E918852154BB585F DUP3 DUP3 PUSH1 0x0 PUSH1 0x40 MLOAD PUSH2 0x23F SWAP4 SWAP3 SWAP2 SWAP1 PUSH2 0x5D3 JUMP JUMPDEST PUSH1 0x40 MLOAD DUP1 SWAP2 SUB SWAP1 LOG1 POP POP JUMP JUMPDEST PUSH1 0x0 DUP1 PUSH1 0x0 DUP4 DUP2 MSTORE PUSH1 0x20 ADD SWAP1 DUP2 MSTORE PUSH1 0x20 ADD PUSH1 0x0 KECCAK256 SWAP1 POP PUSH1 0x1 DUP2 PUSH1 0x2 ADD PUSH1 0x0 PUSH2 0x100 EXP DUP2 SLOAD DUP2 PUSH1 0xFF MUL NOT AND SWAP1 DUP4 ISZERO ISZERO MUL OR SWAP1 SSTORE POP PUSH32 0x1AEF60839D06FC75FC8758E2118ABD2FBE6DD7B243A1F416E918852154BB585F DUP3 PUSH1 0x1 PUSH1 0x40 MLOAD PUSH2 0x2B0 SWAP3 SWAP2 SWAP1 PUSH2 0x611 JUMP JUMPDEST PUSH1 0x40 MLOAD DUP1 SWAP2 SUB SWAP1 LOG1 POP POP JUMP JUMPDEST PUSH1 0x40 MLOAD DUP1 PUSH1 0x60 ADD PUSH1 0x40 MSTORE DUP1 PUSH1 0x0 DUP2 MSTORE PUSH1 0x20 ADD PUSH1 0x60 DUP2 MSTORE PUSH1 0x20 ADD PUSH1 0x0 ISZERO ISZERO DUP2 MSTORE POP SWAP1 JUMP JUMPDEST DUP3 DUP1 SLOAD PUSH2 0x2EB SWAP1 PUSH2 0x728 JUMP JUMPDEST SWAP1 PUSH1 0x0 MSTORE PUSH1 0x20 PUSH1 0x0 KECCAK256 SWAP1 PUSH1 0x1F ADD PUSH1 0x20 SWAP1 DIV DUP2 ADD SWAP3 DUP3 PUSH2 0x30D JUMPI PUSH1 0x0 DUP6 SSTORE PUSH2 0x354 JUMP JUMPDEST DUP3 PUSH1 0x1F LT PUSH2 0x326 JUMPI DUP1 MLOAD PUSH1 0xFF NOT AND DUP4 DUP1 ADD OR DUP6 SSTORE PUSH2 0x354 JUMP JUMPDEST DUP3 DUP1 ADD PUSH1 0x1 ADD DUP6 SSTORE DUP3 ISZERO PUSH2 0x354 JUMPI SWAP2 DUP3 ADD JUMPDEST DUP3 DUP2 GT ISZERO PUSH2 0x353 JUMPI DUP3 MLOAD DUP3 SSTORE SWAP2 PUSH1 0x20 ADD SWAP2 SWAP1 PUSH1 0x1 ADD SWAP1 PUSH2 0x338 JUMP JUMPDEST JUMPDEST POP SWAP1 POP PUSH2 0x361 SWAP2 SWAP1 PUSH2 0x365 JUMP JUMPDEST POP SWAP1 JUMP JUMPDEST JUMPDEST DUP1 DUP3 GT ISZERO PUSH2 0x37E JUMPI PUSH1 0x0 DUP2 PUSH1 0x0 SWAP1 SSTORE POP PUSH1 0x1 ADD PUSH2 0x366 JUMP JUMPDEST POP SWAP1 JUMP JUMPDEST PUSH1 0x0 PUSH2 0x395 PUSH2 0x390 DUP5 PUSH2 0x672 JUMP JUMPDEST PUSH2 0x64D JUMP JUMPDEST SWAP1 POP DUP3 DUP2 MSTORE PUSH1 0x20 DUP2 ADD DUP5 DUP5 DUP5 ADD GT ISZERO PUSH2 0x3B1 JUMPI PUSH2 0x3B0 PUSH2 0x7EE JUMP JUMPDEST JUMPDEST PUSH2 0x3BC DUP5 DUP3 DUP6 PUSH2 0x6E6 JUMP JUMPDEST POP SWAP4 SWAP3 POP POP POP JUMP JUMPDEST PUSH1 0x0 DUP3 PUSH1 0x1F DUP4 ADD SLT PUSH2 0x3D9 JUMPI PUSH2 0x3D8 PUSH2 0x7E9 JUMP JUMPDEST JUMPDEST DUP2 CALLDATALOAD PUSH2 0x3E9 DUP5 DUP3 PUSH1 0x20 DUP7 ADD PUSH2 0x382 JUMP JUMPDEST SWAP2 POP POP SWAP3 SWAP2 POP POP JUMP JUMPDEST PUSH1 0x0 DUP2 CALLDATALOAD SWAP1 POP PUSH2 0x401 DUP2 PUSH2 0x811 JUMP JUMPDEST SWAP3 SWAP2 POP POP JUMP JUMPDEST PUSH1 0x0 PUSH1 0x20 DUP3 DUP5 SUB SLT ISZERO PUSH2 0x41D JUMPI PUSH2 0x41C PUSH2 0x7F8 JUMP JUMPDEST JUMPDEST PUSH1 0x0 PUSH2 0x42B DUP5 DUP3 DUP6 ADD PUSH2 0x3F2 JUMP JUMPDEST SWAP2 POP POP SWAP3 SWAP2 POP POP JUMP JUMPDEST PUSH1 0x0 DUP1 PUSH1 0x40 DUP4 DUP6 SUB SLT ISZERO PUSH2 0x44B JUMPI PUSH2 0x44A PUSH2 0x7F8 JUMP JUMPDEST JUMPDEST PUSH1 0x0 PUSH2 0x459 DUP6 DUP3 DUP7 ADD PUSH2 0x3F2 JUMP JUMPDEST SWAP3 POP POP PUSH1 0x20 DUP4 ADD CALLDATALOAD PUSH8 0xFFFFFFFFFFFFFFFF DUP2 GT ISZERO PUSH2 0x47A JUMPI PUSH2 0x479 PUSH2 0x7F3 JUMP JUMPDEST JUMPDEST PUSH2 0x486 DUP6 DUP3 DUP7 ADD PUSH2 0x3C4 JUMP JUMPDEST SWAP2 POP POP SWAP3 POP SWAP3 SWAP1 POP JUMP JUMPDEST PUSH2 0x499 DUP2 PUSH2 0x6D0 JUMP JUMPDEST DUP3 MSTORE POP POP JUMP JUMPDEST PUSH2 0x4A8 DUP2 PUSH2 0x6D0 JUMP JUMPDEST DUP3 MSTORE POP POP JUMP JUMPDEST PUSH1 0x0 PUSH2 0x4B9 DUP3 PUSH2 0x6A3 JUMP JUMPDEST PUSH2 0x4C3 DUP2 DUP6 PUSH2 0x6AE JUMP JUMPDEST SWAP4 POP PUSH2 0x4D3 DUP2 DUP6 PUSH1 0x20 DUP7 ADD PUSH2 0x6F5 JUMP JUMPDEST PUSH2 0x4DC DUP2 PUSH2 0x7FD JUMP JUMPDEST DUP5 ADD SWAP2 POP POP SWAP3 SWAP2 POP POP JUMP JUMPDEST PUSH1 0x0 PUSH2 0x4F2 DUP3 PUSH2 0x6A3 JUMP JUMPDEST PUSH2 0x4FC DUP2 DUP6 PUSH2 0x6BF JUMP JUMPDEST SWAP4 POP PUSH2 0x50C DUP2 DUP6 PUSH1 0x20 DUP7 ADD PUSH2 0x6F5 JUMP JUMPDEST PUSH2 0x515 DUP2 PUSH2 0x7FD JUMP JUMPDEST DUP5 ADD SWAP2 POP POP SWAP3 SWAP2 POP POP JUMP JUMPDEST PUSH1 0x0 PUSH2 0x52D PUSH1 0x0 DUP4 PUSH2 0x6BF JUMP JUMPDEST SWAP2 POP PUSH2 0x538 DUP3 PUSH2 0x80E JUMP JUMPDEST PUSH1 0x0 DUP3 ADD SWAP1 POP SWAP2 SWAP1 POP JUMP JUMPDEST PUSH1 0x0 PUSH1 0x60 DUP4 ADD PUSH1 0x0 DUP4 ADD MLOAD PUSH2 0x55B PUSH1 0x0 DUP7 ADD DUP3 PUSH2 0x593 JUMP JUMPDEST POP PUSH1 0x20 DUP4 ADD MLOAD DUP5 DUP3 SUB PUSH1 0x20 DUP7 ADD MSTORE PUSH2 0x573 DUP3 DUP3 PUSH2 0x4AE JUMP JUMPDEST SWAP2 POP POP PUSH1 0x40 DUP4 ADD MLOAD PUSH2 0x588 PUSH1 0x40 DUP7 ADD DUP3 PUSH2 0x490 JUMP JUMPDEST POP DUP1 SWAP2 POP POP SWAP3 SWAP2 POP POP JUMP JUMPDEST PUSH2 0x59C DUP2 PUSH2 0x6DC JUMP JUMPDEST DUP3 MSTORE POP POP JUMP JUMPDEST PUSH2 0x5AB DUP2 PUSH2 0x6DC JUMP JUMPDEST DUP3 MSTORE POP POP JUMP JUMPDEST PUSH1 0x0 PUSH1 0x20 DUP3 ADD SWAP1 POP DUP2 DUP2 SUB PUSH1 0x0 DUP4 ADD MSTORE PUSH2 0x5CB DUP2 DUP5 PUSH2 0x543 JUMP JUMPDEST SWAP1 POP SWAP3 SWAP2 POP POP JUMP JUMPDEST PUSH1 0x0 PUSH1 0x60 DUP3 ADD SWAP1 POP PUSH2 0x5E8 PUSH1 0x0 DUP4 ADD DUP7 PUSH2 0x5A2 JUMP JUMPDEST DUP2 DUP2 SUB PUSH1 0x20 DUP4 ADD MSTORE PUSH2 0x5FA DUP2 DUP6 PUSH2 0x4E7 JUMP JUMPDEST SWAP1 POP PUSH2 0x609 PUSH1 0x40 DUP4 ADD DUP5 PUSH2 0x49F JUMP JUMPDEST SWAP5 SWAP4 POP POP POP POP JUMP JUMPDEST PUSH1 0x0 PUSH1 0x60 DUP3 ADD SWAP1 POP PUSH2 0x626 PUSH1 0x0 DUP4 ADD DUP6 PUSH2 0x5A2 JUMP JUMPDEST DUP2 DUP2 SUB PUSH1 0x20 DUP4 ADD MSTORE PUSH2 0x637 DUP2 PUSH2 0x520 JUMP JUMPDEST SWAP1 POP PUSH2 0x646 PUSH1 0x40 DUP4 ADD DUP5 PUSH2 0x49F JUMP JUMPDEST SWAP4 SWAP3 POP POP POP JUMP JUMPDEST PUSH1 0x0 PUSH2 0x657 PUSH2 0x668 JUMP JUMPDEST SWAP1 POP PUSH2 0x663 DUP3 DUP3 PUSH2 0x75A JUMP JUMPDEST SWAP2 SWAP1 POP JUMP JUMPDEST PUSH1 0x0 PUSH1 0x40 MLOAD SWAP1 POP SWAP1 JUMP JUMPDEST PUSH1 0x0 PUSH8 0xFFFFFFFFFFFFFFFF DUP3 GT ISZERO PUSH2 0x68D JUMPI PUSH2 0x68C PUSH2 0x7BA JUMP JUMPDEST JUMPDEST PUSH2 0x696 DUP3 PUSH2 0x7FD JUMP JUMPDEST SWAP1 POP PUSH1 0x20 DUP2 ADD SWAP1 POP SWAP2 SWAP1 POP JUMP JUMPDEST PUSH1 0x0 DUP2 MLOAD SWAP1 POP SWAP2 SWAP1 POP JUMP JUMPDEST PUSH1 0x0 DUP3 DUP3 MSTORE PUSH1 0x20 DUP3 ADD SWAP1 POP SWAP3 SWAP2 POP POP JUMP JUMPDEST PUSH1 0x0 DUP3 DUP3 MSTORE PUSH1 0x20 DUP3 ADD SWAP1 POP SWAP3 SWAP2 POP POP JUMP JUMPDEST PUSH1 0x0 DUP2 ISZERO ISZERO SWAP1 POP SWAP2 SWAP1 POP JUMP JUMPDEST PUSH1 0x0 DUP2 SWAP1 POP SWAP2 SWAP1 POP JUMP JUMPDEST DUP3 DUP2 DUP4 CALLDATACOPY PUSH1 0x0 DUP4 DUP4 ADD MSTORE POP POP POP JUMP JUMPDEST PUSH1 0x0 JUMPDEST DUP4 DUP2 LT ISZERO PUSH2 0x713 JUMPI DUP1 DUP3 ADD MLOAD DUP2 DUP5 ADD MSTORE PUSH1 0x20 DUP2 ADD SWAP1 POP PUSH2 0x6F8 JUMP JUMPDEST DUP4 DUP2 GT ISZERO PUSH2 0x722 JUMPI PUSH1 0x0 DUP5 DUP5 ADD MSTORE JUMPDEST POP POP POP POP JUMP JUMPDEST PUSH1 0x0 PUSH1 0x2 DUP3 DIV SWAP1 POP PUSH1 0x1 DUP3 AND DUP1 PUSH2 0x740 JUMPI PUSH1 0x7F DUP3 AND SWAP2 POP JUMPDEST PUSH1 0x20 DUP3 LT DUP2 EQ ISZERO PUSH2 0x754 JUMPI PUSH2 0x753 PUSH2 0x78B JUMP JUMPDEST JUMPDEST POP SWAP2 SWAP1 POP JUMP JUMPDEST PUSH2 0x763 DUP3 PUSH2 0x7FD JUMP JUMPDEST DUP2 ADD DUP2 DUP2 LT PUSH8 0xFFFFFFFFFFFFFFFF DUP3 GT OR ISZERO PUSH2 0x782 JUMPI PUSH2 0x781 PUSH2 0x7BA JUMP JUMPDEST JUMPDEST DUP1 PUSH1 0x40 MSTORE POP POP POP JUMP JUMPDEST PUSH32 0x4E487B7100000000000000000000000000000000000000000000000000000000 PUSH1 0x0 MSTORE PUSH1 0x22 PUSH1 0x4 MSTORE PUSH1 0x24 PUSH1 0x0 REVERT JUMPDEST PUSH32 0x4E487B7100000000000000000000000000000000000000000000000000000000 PUSH1 0x0 MSTORE PUSH1 0x41 PUSH1 0x4 MSTORE PUSH1 0x24 PUSH1 0x0 REVERT JUMPDEST PUSH1 0x0 DUP1 REVERT JUMPDEST PUSH1 0x0 DUP1 REVERT JUMPDEST PUSH1 0x0 DUP1 REVERT JUMPDEST PUSH1 0x0 DUP1 REVERT JUMPDEST PUSH1 0x0 PUSH1 0x1F NOT PUSH1 0x1F DUP4 ADD AND SWAP1 POP SWAP2 SWAP1 POP JUMP JUMPDEST POP JUMP JUMPDEST PUSH2 0x81A DUP2 PUSH2 0x6DC JUMP JUMPDEST DUP2 EQ PUSH2 0x825 JUMPI PUSH1 0x0 DUP1 REVERT JUMPDEST POP JUMP INVALID LOG2 PUSH5 0x6970667358 0x22 SLT KECCAK256 0x2D PUSH28 0x2FD9D9C4864FE3F433DE105A5A3703C7A3D2F34F4E1D6C954A0B4FFF 0x2F SELFDESTRUCT PUSH5 0x736F6C6343 STOP ADDMOD SMOD STOP CALLER "
				},
				"gasEstimates": {
					"creation": {
						"codeDepositCost": "428400",
						"executionCost": "461",
						"totalCost": "428861"
					},
					"external": {
						"completed(uint256)": "infinite",
						"createnote(uint256,string)": "infinite",
						"viewtask(uint256)": "infinite"
					}
				},
				"methodIdentifiers": {
					"completed(uint256)": "c0cca5ef",
					"createnote(uint256,string)": "664a9d1d",
					"viewtask(uint256)": "2736038e"
				}
			},
			"storageLayout": {
				"storage": [
					{
						"astId": 13,
						"contract": "Do nut.sol:todo",
						"label": "notes",
						"offset": 0,
						"slot": "0",
						"type": "t_mapping(t_uint256,t_struct(Note)8_storage)"
					}
				],
				"types": {
					"t_bool": {
						"encoding": "inplace",
						"label": "bool",
						"numberOfBytes": "1"
					},
					"t_mapping(t_uint256,t_struct(Note)8_storage)": {
						"encoding": "mapping",
						"key": "t_uint256",
						"label": "mapping(uint256 => struct todo.Note)",
						"numberOfBytes": "32",
						"value": "t_struct(Note)8_storage"
					},
					"t_string_storage": {
						"encoding": "bytes",
						"label": "string",
						"numberOfBytes": "32"
					},
					"t_struct(Note)8_storage": {
						"encoding": "inplace",
						"label": "struct todo.Note",
						"members": [
							{
								"astId": 3,
								"contract": "Do nut.sol:todo",
								"label": "id",
								"offset": 0,
								"slot": "0",
								"type": "t_uint256"
							},
							{
								"astId": 5,
								"contract": "Do nut.sol:todo",
								"label": "description",
								"offset": 0,
								"slot": "1",
								"type": "t_string_storage"
							},
							{
								"astId": 7,
								"contract": "Do nut.sol:todo",
								"label": "finished",
								"offset": 0,
								"slot": "2",
								"type": "t_bool"
							}
						],
						"numberOfBytes": "96"
					},
					"t_uint256": {
						"encoding": "inplace",
						"label": "uint256",
						"numberOfBytes": "32"
					}
				}
			},
			"userdoc": {
				"kind": "user",
				"methods": {},
				"version": 1
			}
		}
	}
}